{
  "contractName": "EscrowTrade",
  "abi": [
    {
      "inputs": [],
      "stateMutability": "nonpayable",
      "type": "constructor"
    },
    {
      "anonymous": false,
      "inputs": [
        {
          "indexed": true,
          "internalType": "address",
          "name": "previousOwner",
          "type": "address"
        },
        {
          "indexed": true,
          "internalType": "address",
          "name": "newOwner",
          "type": "address"
        }
      ],
      "name": "OwnershipTransferred",
      "type": "event"
    },
    {
      "anonymous": false,
      "inputs": [
        {
          "indexed": false,
          "internalType": "uint256",
          "name": "contractID",
          "type": "uint256"
        }
      ],
      "name": "confirmedByBuyer",
      "type": "event"
    },
    {
      "anonymous": false,
      "inputs": [
        {
          "indexed": false,
          "internalType": "uint256",
          "name": "contractID",
          "type": "uint256"
        }
      ],
      "name": "confirmedBySeller",
      "type": "event"
    },
    {
      "anonymous": false,
      "inputs": [
        {
          "indexed": false,
          "internalType": "uint256",
          "name": "contractID",
          "type": "uint256"
        }
      ],
      "name": "contractBroken",
      "type": "event"
    },
    {
      "anonymous": false,
      "inputs": [
        {
          "indexed": false,
          "internalType": "uint256",
          "name": "contractID",
          "type": "uint256"
        },
        {
          "indexed": false,
          "internalType": "address",
          "name": "buyer",
          "type": "address"
        },
        {
          "indexed": false,
          "internalType": "address",
          "name": "seller",
          "type": "address"
        }
      ],
      "name": "contractCreated",
      "type": "event"
    },
    {
      "anonymous": false,
      "inputs": [
        {
          "indexed": false,
          "internalType": "uint256",
          "name": "contractID",
          "type": "uint256"
        }
      ],
      "name": "contractSuccess",
      "type": "event"
    },
    {
      "inputs": [],
      "name": "lockDuration",
      "outputs": [
        {
          "internalType": "uint256",
          "name": "",
          "type": "uint256"
        }
      ],
      "stateMutability": "view",
      "type": "function"
    },
    {
      "inputs": [],
      "name": "owner",
      "outputs": [
        {
          "internalType": "address",
          "name": "",
          "type": "address"
        }
      ],
      "stateMutability": "view",
      "type": "function"
    },
    {
      "inputs": [],
      "name": "renounceOwnership",
      "outputs": [],
      "stateMutability": "nonpayable",
      "type": "function"
    },
    {
      "inputs": [
        {
          "internalType": "address",
          "name": "newOwner",
          "type": "address"
        }
      ],
      "name": "transferOwnership",
      "outputs": [],
      "stateMutability": "nonpayable",
      "type": "function"
    },
    {
      "inputs": [
        {
          "internalType": "uint256",
          "name": "contractId",
          "type": "uint256"
        },
        {
          "internalType": "address",
          "name": "_buyer",
          "type": "address"
        },
        {
          "internalType": "address",
          "name": "_seller",
          "type": "address"
        },
        {
          "internalType": "address",
          "name": "_buyToken",
          "type": "address"
        },
        {
          "internalType": "address",
          "name": "_sellToken",
          "type": "address"
        },
        {
          "internalType": "uint256",
          "name": "_buyAmount",
          "type": "uint256"
        },
        {
          "internalType": "uint256",
          "name": "_sellAmount",
          "type": "uint256"
        }
      ],
      "name": "createContract",
      "outputs": [],
      "stateMutability": "nonpayable",
      "type": "function"
    },
    {
      "inputs": [
        {
          "internalType": "uint256",
          "name": "contractID",
          "type": "uint256"
        }
      ],
      "name": "confirmByBuyer",
      "outputs": [],
      "stateMutability": "payable",
      "type": "function"
    },
    {
      "inputs": [
        {
          "internalType": "uint256",
          "name": "contractID",
          "type": "uint256"
        }
      ],
      "name": "confirmBySeller",
      "outputs": [],
      "stateMutability": "payable",
      "type": "function"
    },
    {
      "inputs": [
        {
          "internalType": "uint256",
          "name": "contractID",
          "type": "uint256"
        }
      ],
      "name": "breakContract",
      "outputs": [],
      "stateMutability": "nonpayable",
      "type": "function"
    },
    {
      "inputs": [
        {
          "internalType": "uint256",
          "name": "contractID",
          "type": "uint256"
        }
      ],
      "name": "successContract",
      "outputs": [],
      "stateMutability": "nonpayable",
      "type": "function"
    }
  ],
  "bytecode": "0x60806040526201518060035534801561001757600080fd5b50600080546001600160a01b031916339081178255604051909182917f8be0079c531659141344cd1fd0a4f28419497f9722a3daafe3b4186f6b6457e0908290a350611694806100686000396000f3fe6080604052600436106100965760003560e01c8063715018a611610069578063ac7065771161004e578063ac70657714610163578063e5ff682814610176578063f2fde38b1461018957600080fd5b8063715018a6146101265780638da5cb5b1461013b57600080fd5b8063022bc1271461009b57806304554443146100bd578063124b14ec146100e65780633b40446e14610106575b600080fd5b3480156100a757600080fd5b506100bb6100b6366004611592565b6101a9565b005b3480156100c957600080fd5b506100d360035481565b6040519081526020015b60405180910390f35b3480156100f257600080fd5b506100bb6101013660046115aa565b610566565b34801561011257600080fd5b506100bb610121366004611592565b61084b565b34801561013257600080fd5b506100bb610ca5565b34801561014757600080fd5b506000546040516001600160a01b0390911681526020016100dd565b6100bb610171366004611592565b610d56565b6100bb610184366004611592565b6110a7565b34801561019557600080fd5b506100bb6101a4366004611558565b6113df565b60008181526002602052604090205460ff1615156001146102115760405162461bcd60e51b815260206004820152601860248201527f627265616b436f6e74726163743a206e6f74206578697374000000000000000060448201526064015b60405180910390fd5b600081815260016020819052604090912001546001600160a01b0316331461027b5760405162461bcd60e51b815260206004820152601960248201527f627265616b436f6e74726163743a206e6f742073656c6c6572000000000000006044820152606401610208565b6000808281526001602052604090206008015462010000900460ff1660028111156102b657634e487b7160e01b600052602160045260246000fd5b146103035760405162461bcd60e51b815260206004820152601760248201527f627265616b436f6e74726163743a2066696e69736865640000000000000000006044820152606401610208565b600081815260016020819052604090912060080154610100900460ff1615151461037e5760405162461bcd60e51b815260206004820152602660248201527f627265616b436f6e74726163743a206e6f7420636f6e6669726d65642062792060448201526539b2b63632b960d11b6064820152608401610208565b6000818152600160205260409020600701544210156103df5760405162461bcd60e51b815260206004820152601b60248201527f627265616b436f6e74726163743a206e6f7420756e6c6f636b656400000000006044820152606401610208565b600081815260016020526040902060028101546004820154600683015492546001600160a01b039283169391921683610457576001600160a01b0381166108fc610429858561151d565b6040518115909202916000818181858888f19350505050158015610451573d6000803e3d6000fd5b50610509565b6001600160a01b03841663a9059cbb82610471868661151d565b6040517fffffffff0000000000000000000000000000000000000000000000000000000060e085901b1681526001600160a01b0390921660048301526024820152604401602060405180830381600087803b1580156104cf57600080fd5b505af11580156104e3573d6000803e3d6000fd5b505050506040513d601f19601f820116820180604052508101906105079190611572565b505b60008581526001602090815260409182902060080180546201000062ff00001990911617905590518681527f8b57e283269f957595593fd1a9647e82f5455549f2d109b0e1118873b2485dab910160405180910390a15050505050565b6000546001600160a01b031633146105c05760405162461bcd60e51b815260206004820181905260248201527f4f776e61626c653a2063616c6c6572206973206e6f7420746865206f776e65726044820152606401610208565b60008781526002602052604090205460ff161561061f5760405162461bcd60e51b815260206004820152601d60248201527f437265617465436f6e74726163743a20616c72656164792065786973740000006044820152606401610208565b6000604051806101600160405280886001600160a01b03168152602001876001600160a01b03168152602001866001600160a01b03168152602001856001600160a01b0316815260200184815260200183815260200161068960028661153090919063ffffffff16565b81526020016106a34260035461151d90919063ffffffff16565b8152600060208201819052604082018190526060909101526000898152600160208181526040928390208451815473ffffffffffffffffffffffffffffffffffffffff199081166001600160a01b039283161783559286015193820180548416948216949094179093559284015160028085018054841692851692909217909155606085015160038501805490931693169290921790556080830151600483015560a0830151600583015560c0830151600683015560e083015160078301556101008084015160088401805461012087015161ffff1990911692151561ff001916929092179115159092021780825561014085015194955085949262ff00001990911690620100009084908111156107cb57634e487b7160e01b600052602160045260246000fd5b0217905550505060008881526002602052604090819020805460ff19166001179055517f8d5988e8a53c613e6f55bd828c49f97d379336af55c006d5637a27fde250957790610839908a908a908a909283526001600160a01b03918216602084015216604082015260600190565b60405180910390a15050505050505050565b60008181526002602052604090205460ff1615156001146108ae5760405162461bcd60e51b815260206004820152601860248201527f627265616b436f6e74726163743a206e6f7420657869737400000000000000006044820152606401610208565b600081815260016020819052604090912001546001600160a01b031633146109185760405162461bcd60e51b815260206004820152601960248201527f627265616b436f6e74726163743a206e6f742073656c6c6572000000000000006044820152606401610208565b6000808281526001602052604090206008015462010000900460ff16600281111561095357634e487b7160e01b600052602160045260246000fd5b146109a05760405162461bcd60e51b815260206004820152601760248201527f627265616b436f6e74726163743a2066696e69736865640000000000000000006044820152606401610208565b600081815260016020819052604090912060080154610100900460ff16151514610a1b5760405162461bcd60e51b815260206004820152602660248201527f627265616b436f6e74726163743a206e6f7420636f6e6669726d65642062792060448201526539b2b63632b960d11b6064820152608401610208565b600081815260016020526040902060070154421015610a7c5760405162461bcd60e51b815260206004820152601b60248201527f627265616b436f6e74726163743a206e6f7420756e6c6f636b656400000000006044820152606401610208565b600081815260016020526040908190208054600382015460059092015492516323b872dd60e01b81523360048201526001600160a01b03918216602482018190526044820185905293919092169182906323b872dd90606401602060405180830381600087803b158015610aef57600080fd5b505af1158015610b03573d6000803e3d6000fd5b505050506040513d601f19601f82011682018060405250810190610b279190611572565b506000848152600160205260409020600281015460048201546006909201546001600160a01b03909116919082610b9457336108fc610b66848461151d565b6040518115909202916000818181858888f19350505050158015610b8e573d6000803e3d6000fd5b50610c46565b6001600160a01b03831663a9059cbb33610bae858561151d565b6040517fffffffff0000000000000000000000000000000000000000000000000000000060e085901b1681526001600160a01b0390921660048301526024820152604401602060405180830381600087803b158015610c0c57600080fd5b505af1158015610c20573d6000803e3d6000fd5b505050506040513d601f19601f82011682018060405250810190610c449190611572565b505b60008781526001602090815260409182902060080180546202000062ff00001990911617905590518881527fe4251c2cd5298157b95cdf67a43db467d213c7823318ce1cf82a02965a5a097a910160405180910390a150505050505050565b6000546001600160a01b03163314610cff5760405162461bcd60e51b815260206004820181905260248201527f4f776e61626c653a2063616c6c6572206973206e6f7420746865206f776e65726044820152606401610208565b600080546040516001600160a01b03909116907f8be0079c531659141344cd1fd0a4f28419497f9722a3daafe3b4186f6b6457e0908390a36000805473ffffffffffffffffffffffffffffffffffffffff19169055565b60008181526002602052604090205460ff161515600114610db95760405162461bcd60e51b815260206004820152601a60248201527f436f6e6669726d427953656c6c65723a206e6f742065786973740000000000006044820152606401610208565b600081815260016020819052604090912001546001600160a01b03163314610e235760405162461bcd60e51b815260206004820152601b60248201527f436f6e6669726d427953656c6c65723a206e6f742073656c6c657200000000006044820152606401610208565b600081815260016020526040902060080154610100900460ff1615610eb05760405162461bcd60e51b815260206004820152602260248201527f436f6e6669726d427953656c6c65723a20616c726561647920636f6e6669726d60448201527f65640000000000000000000000000000000000000000000000000000000000006064820152608401610208565b6000808281526001602052604090206008015462010000900460ff166002811115610eeb57634e487b7160e01b600052602160045260246000fd5b14610f385760405162461bcd60e51b815260206004820152601960248201527f436f6e6669726d427953656c6c65723a2066696e6973686564000000000000006044820152606401610208565b600081815260016020526040902060028101546006909101546001600160a01b039091169081610fc25780341015610fbd5760405162461bcd60e51b815260206004820152602260248201527f436f6e6669726d427942757965723a20696e73756666696369656e742066756e604482015261647360f01b6064820152608401610208565b61104a565b6040516323b872dd60e01b8152336004820152306024820152604481018290526001600160a01b038316906323b872dd90606401602060405180830381600087803b15801561101057600080fd5b505af1158015611024573d6000803e3d6000fd5b505050506040513d601f19601f820116820180604052508101906110489190611572565b505b60008381526001602052604090819020600801805461ff001916610100179055517f270ef93a1cf56739cf0973c0e751d08edf762ca78c85f3e07bd17ebaecc26ee29061109a9085815260200190565b60405180910390a1505050565b60008181526002602052604090205460ff16151560011461110a5760405162461bcd60e51b815260206004820152601960248201527f436f6e6669726d427942757965723a206e6f74206578697374000000000000006044820152606401610208565b6000818152600160205260409020546001600160a01b031633146111705760405162461bcd60e51b815260206004820152601960248201527f436f6e6669726d427942757965723a206e6f74206275796572000000000000006044820152606401610208565b60008181526001602052604090206008015460ff16156111f85760405162461bcd60e51b815260206004820152602160248201527f436f6e6669726d427942757965723a20616c726561647920636f6e6669726d6560448201527f64000000000000000000000000000000000000000000000000000000000000006064820152608401610208565b6000808281526001602052604090206008015462010000900460ff16600281111561123357634e487b7160e01b600052602160045260246000fd5b146112805760405162461bcd60e51b815260206004820152601860248201527f436f6e6669726d427942757965723a2066696e697368656400000000000000006044820152606401610208565b600081815260016020526040902060028101546004909101546001600160a01b03909116908161130a57803410156113055760405162461bcd60e51b815260206004820152602260248201527f436f6e6669726d427942757965723a20696e73756666696369656e742066756e604482015261647360f01b6064820152608401610208565b611392565b6040516323b872dd60e01b8152336004820152306024820152604481018290526001600160a01b038316906323b872dd90606401602060405180830381600087803b15801561135857600080fd5b505af115801561136c573d6000803e3d6000fd5b505050506040513d601f19601f820116820180604052508101906113909190611572565b505b600083815260016020818152604092839020600801805460ff191690921790915590518481527ee850f337b0ae5c7412ef6ecb8bb3cc47aebfb27d4ecec863e80232c9995b84910161109a565b6000546001600160a01b031633146114395760405162461bcd60e51b815260206004820181905260248201527f4f776e61626c653a2063616c6c6572206973206e6f7420746865206f776e65726044820152606401610208565b6001600160a01b0381166114b55760405162461bcd60e51b815260206004820152602660248201527f4f776e61626c653a206e6577206f776e657220697320746865207a65726f206160448201527f64647265737300000000000000000000000000000000000000000000000000006064820152608401610208565b600080546040516001600160a01b03808516939216917f8be0079c531659141344cd1fd0a4f28419497f9722a3daafe3b4186f6b6457e091a36000805473ffffffffffffffffffffffffffffffffffffffff19166001600160a01b0392909216919091179055565b6000611529828461161a565b9392505050565b6000611529828461163e565b80356001600160a01b038116811461155357600080fd5b919050565b600060208284031215611569578081fd5b6115298261153c565b600060208284031215611583578081fd5b81518015158114611529578182fd5b6000602082840312156115a3578081fd5b5035919050565b600080600080600080600060e0888a0312156115c4578283fd5b873596506115d46020890161153c565b95506115e26040890161153c565b94506115f06060890161153c565b93506115fe6080890161153c565b925060a0880135915060c0880135905092959891949750929550565b6000821982111561163957634e487b7160e01b81526011600452602481fd5b500190565b60008261165957634e487b7160e01b81526012600452602481fd5b50049056fea2646970667358221220022061642029b698df6d723c78ac044f6b55d9b28e12d1213d8aa16adbdaa07664736f6c63430008040033",
  "immutableReferences": {},
  "source": "// SPDX-License-Identifier: MIT\r\n\r\npragma solidity ^0.8.0;\r\n\r\nimport \"@openzeppelin/contracts/token/ERC20/IERC20.sol\";\r\nimport \"@openzeppelin/contracts/access/Ownable.sol\";\r\nimport \"@openzeppelin/contracts/utils/math/SafeMath.sol\";\r\n\r\ncontract EscrowTrade is Ownable {\r\n\r\n    enum Status{PENDING, BROKEN, SUCCESS}\r\n\r\n    using SafeMath for uint256;\r\n\r\n    event contractCreated(uint256 contractID, address buyer, address seller);\r\n    event confirmedByBuyer(uint256 contractID);\r\n    event confirmedBySeller(uint256 contractID);\r\n    event contractBroken(uint256 contractID);\r\n    event contractSuccess(uint256 contractID);\r\n\r\n    struct Contract{\r\n        address buyer;\r\n        address seller;\r\n        address buyerToken; // if buyerToken address equals 0x0, it means BNB\r\n        address sellerToken;\r\n        uint256 buyAmount;\r\n        uint256 sellAmount;\r\n        uint256 collateral;\r\n        uint256 lockTime;\r\n        bool buyerConfirmed;\r\n        bool sellerConfirmed;\r\n        Status state;\r\n    }\r\n\r\n    mapping(uint256 => Contract) list;\r\n    mapping(uint256 => bool) isExist;\r\n\r\n    uint256 public lockDuration = 1 days;\r\n\r\n    constructor() public {}\r\n\r\n    function createContract(\r\n        uint256 contractId,\r\n        address _buyer,\r\n        address _seller,\r\n        address _buyToken,\r\n        address _sellToken,\r\n        uint256 _buyAmount,\r\n        uint256 _sellAmount) external onlyOwner {\r\n        require(isExist[contractId] == false, \"CreateContract: already exist\");\r\n        Contract memory newContract = Contract({\r\n            buyer: _buyer,\r\n            seller: _seller,\r\n            buyerToken: _buyToken,\r\n            sellerToken: _sellToken,\r\n            buyAmount: _buyAmount,\r\n            sellAmount: _sellAmount,\r\n            collateral: _buyAmount.div(2),\r\n            lockTime: lockDuration.add(block.timestamp),\r\n            buyerConfirmed: false,\r\n            sellerConfirmed: false,\r\n            state: Status.PENDING\r\n        });\r\n        list[contractId] = newContract;\r\n        isExist[contractId] = true;\r\n\r\n        emit contractCreated(contractId, _buyer, _seller);\r\n    }\r\n\r\n    function confirmByBuyer(uint256 contractID) external payable {\r\n        require(isExist[contractID] == true, \"ConfirmByBuyer: not exist\");\r\n        require(msg.sender == list[contractID].buyer, \"ConfirmByBuyer: not buyer\");\r\n        require(list[contractID].buyerConfirmed == false, \"ConfirmByBuyer: already confirmed\");\r\n        require(list[contractID].state == Status.PENDING, \"ConfirmByBuyer: finished\");\r\n\r\n        address buyerToken = list[contractID].buyerToken;\r\n        uint256 buyAmount = list[contractID].buyAmount;\r\n\r\n        if(buyerToken == address(0x0)){\r\n            require(msg.value >= buyAmount, \"ConfirmByBuyer: insufficient funds\");\r\n        }else{\r\n            IERC20(buyerToken).transferFrom(msg.sender, address(this), buyAmount);\r\n        }\r\n        list[contractID].buyerConfirmed = true;\r\n\r\n        emit confirmedByBuyer(contractID);\r\n    }\r\n\r\n    function confirmBySeller(uint256 contractID) external payable {\r\n        require(isExist[contractID] == true, \"ConfirmBySeller: not exist\");\r\n        require(msg.sender == list[contractID].seller, \"ConfirmBySeller: not seller\");\r\n        require(list[contractID].sellerConfirmed == false, \"ConfirmBySeller: already confirmed\");\r\n        require(list[contractID].state == Status.PENDING, \"ConfirmBySeller: finished\");\r\n\r\n        address buyerToken = list[contractID].buyerToken;\r\n        uint256 collateral = list[contractID].collateral;\r\n\r\n        if(buyerToken == address(0x0)){\r\n            require(msg.value >= collateral, \"ConfirmByBuyer: insufficient funds\");\r\n        }else{\r\n            IERC20(buyerToken).transferFrom(msg.sender, address(this), collateral);\r\n        }\r\n        list[contractID].sellerConfirmed = true;\r\n\r\n        emit confirmedBySeller(contractID);\r\n    }\r\n\r\n    function breakContract(uint256 contractID) external {\r\n        require(isExist[contractID] == true, \"breakContract: not exist\");\r\n        require(msg.sender == list[contractID].seller, \"breakContract: not seller\");\r\n        require(list[contractID].state == Status.PENDING, \"breakContract: finished\");\r\n        require(list[contractID].sellerConfirmed == true, \"breakContract: not confirmed by seller\");\r\n        require(list[contractID].lockTime <= block.timestamp, \"breakContract: not unlocked\");\r\n\r\n        address buyerToken = list[contractID].buyerToken;\r\n        uint256 buyAmount = list[contractID].buyAmount;\r\n        uint256 collateral = list[contractID].collateral;\r\n\r\n        address buyer = list[contractID].buyer;\r\n\r\n        if(buyerToken == address(0x0)){\r\n            payable(buyer).transfer(buyAmount.add(collateral));\r\n\r\n        }else{\r\n            IERC20(buyerToken).transfer(buyer, buyAmount.add(collateral));\r\n        }\r\n\r\n        list[contractID].state = Status.BROKEN;\r\n\r\n        emit contractBroken(contractID);\r\n    }\r\n\r\n    function successContract(uint256 contractID) external {\r\n        require(isExist[contractID] == true, \"breakContract: not exist\");\r\n        require(msg.sender == list[contractID].seller, \"breakContract: not seller\");\r\n        require(list[contractID].state == Status.PENDING, \"breakContract: finished\");\r\n        require(list[contractID].sellerConfirmed == true, \"breakContract: not confirmed by seller\");\r\n        require(list[contractID].lockTime <= block.timestamp, \"breakContract: not unlocked\");\r\n\r\n        address buyer = list[contractID].buyer;\r\n        address sellerToken = list[contractID].sellerToken;\r\n        uint256 sellAmount = list[contractID].sellAmount;\r\n\r\n        IERC20(sellerToken).transferFrom(msg.sender, buyer, sellAmount);\r\n\r\n        address buyerToken = list[contractID].buyerToken;\r\n        uint256 buyAmount = list[contractID].buyAmount;\r\n        uint256 collateral = list[contractID].collateral;\r\n\r\n        if(buyerToken == address(0x0)){\r\n            payable(msg.sender).transfer(buyAmount.add(collateral));\r\n\r\n        }else{\r\n            IERC20(buyerToken).transfer(msg.sender, buyAmount.add(collateral));\r\n        }\r\n\r\n        list[contractID].state = Status.SUCCESS;\r\n\r\n        emit contractSuccess(contractID);\r\n    }\r\n}\r\n",
  "sourcePath": "E:/blockchain/OTC exchange/contract/contracts/EscrowTrade.sol",
  "compiler": {
    "name": "solc",
    "version": "0.8.4+commit.c7e474f2.Emscripten.clang"
  },
  "schemaVersion": "3.3.3",
  "updatedAt": "2021-06-26T17:34:45.779Z",
  "devdoc": {
    "kind": "dev",
    "methods": {
      "owner()": {
        "details": "Returns the address of the current owner."
      },
      "renounceOwnership()": {
        "details": "Leaves the contract without owner. It will not be possible to call `onlyOwner` functions anymore. Can only be called by the current owner. NOTE: Renouncing ownership will leave the contract without an owner, thereby removing any functionality that is only available to the owner."
      },
      "transferOwnership(address)": {
        "details": "Transfers ownership of the contract to a new account (`newOwner`). Can only be called by the current owner."
      }
    },
    "version": 1
  },
  "userdoc": {
    "kind": "user",
    "methods": {},
    "version": 1
  }
}